{
	"Fundme.sol": {
		"FundMe": {
			"abi": [
				{
					"inputs": [],
					"stateMutability": "nonpayable",
					"type": "constructor"
				},
				{
					"inputs": [],
					"name": "CallFailed",
					"type": "error"
				},
				{
					"inputs": [],
					"name": "NotOwner",
					"type": "error"
				},
				{
					"stateMutability": "payable",
					"type": "fallback"
				},
				{
					"inputs": [],
					"name": "MINIMUM_USD",
					"outputs": [
						{
							"internalType": "uint256",
							"name": "",
							"type": "uint256"
						}
					],
					"stateMutability": "view",
					"type": "function"
				},
				{
					"inputs": [
						{
							"internalType": "address",
							"name": "",
							"type": "address"
						}
					],
					"name": "addressToFundedAmount",
					"outputs": [
						{
							"internalType": "uint256",
							"name": "",
							"type": "uint256"
						}
					],
					"stateMutability": "view",
					"type": "function"
				},
				{
					"inputs": [],
					"name": "fund",
					"outputs": [],
					"stateMutability": "payable",
					"type": "function"
				},
				{
					"inputs": [
						{
							"internalType": "uint256",
							"name": "",
							"type": "uint256"
						}
					],
					"name": "funders",
					"outputs": [
						{
							"internalType": "address",
							"name": "",
							"type": "address"
						}
					],
					"stateMutability": "view",
					"type": "function"
				},
				{
					"inputs": [],
					"name": "i_owner",
					"outputs": [
						{
							"internalType": "address",
							"name": "",
							"type": "address"
						}
					],
					"stateMutability": "view",
					"type": "function"
				},
				{
					"inputs": [],
					"name": "withdraw",
					"outputs": [],
					"stateMutability": "nonpayable",
					"type": "function"
				},
				{
					"stateMutability": "payable",
					"type": "receive"
				}
			],
			"devdoc": {
				"kind": "dev",
				"methods": {},
				"version": 1
			},
			"evm": {
				"assembly": "    /* \"Fundme.sol\":233:1786  contract FundMe{... */\n  mstore(0x40, 0xa0)\n    /* \"Fundme.sol\":479:529  constructor(){... */\n  callvalue\n  dup1\n  iszero\n  tag_1\n  jumpi\n  0x00\n  dup1\n  revert\ntag_1:\n  pop\n    /* \"Fundme.sol\":511:521  msg.sender */\n  caller\n    /* \"Fundme.sol\":503:521  i_owner=msg.sender */\n  0xffffffffffffffffffffffffffffffffffffffff\n  and\n  0x80\n  dup2\n  0xffffffffffffffffffffffffffffffffffffffff\n  and\n  dup2\n  mstore\n  pop\n  pop\n    /* \"Fundme.sol\":233:1786  contract FundMe{... */\n  mload(0x80)\n  codecopy(0x00, dataOffset(sub_0), dataSize(sub_0))\n  0x00\n  assignImmutable(\"0x59d26ca75eb04b47ab1bca5d789d02e4d0cf9ff8cb49c9041caeeeab4eccafbf\")\n  return(0x00, dataSize(sub_0))\nstop\n\nsub_0: assembly {\n        /* \"Fundme.sol\":233:1786  contract FundMe{... */\n      mstore(0x40, 0x80)\n      jumpi(tag_1, lt(calldatasize, 0x04))\n      shr(0xe0, calldataload(0x00))\n      dup1\n      0x3ccfd60b\n      eq\n      tag_3\n      jumpi\n      dup1\n      0x6b69a592\n      eq\n      tag_4\n      jumpi\n      dup1\n      0xb60d4288\n      eq\n      tag_5\n      jumpi\n      dup1\n      0xd1fa2baa\n      eq\n      tag_6\n      jumpi\n      dup1\n      0xdba6335f\n      eq\n      tag_7\n      jumpi\n      dup1\n      0xdc0d3dff\n      eq\n      tag_8\n      jumpi\n      jump(tag_2)\n    tag_1:\n      jumpi(tag_2, calldatasize)\n        /* \"Fundme.sol\":1697:1703  fund() */\n      tag_11\n        /* \"Fundme.sol\":1697:1701  fund */\n      tag_12\n        /* \"Fundme.sol\":1697:1703  fund() */\n      jump\t// in\n    tag_11:\n        /* \"Fundme.sol\":233:1786  contract FundMe{... */\n      stop\n    tag_2:\n        /* \"Fundme.sol\":1761:1767  fund() */\n      tag_15\n        /* \"Fundme.sol\":1761:1765  fund */\n      tag_12\n        /* \"Fundme.sol\":1761:1767  fund() */\n      jump\t// in\n    tag_15:\n        /* \"Fundme.sol\":233:1786  contract FundMe{... */\n      stop\n        /* \"Fundme.sol\":771:1482  function withdraw() public onlyOwner {... */\n    tag_3:\n      callvalue\n      dup1\n      iszero\n      tag_16\n      jumpi\n      0x00\n      dup1\n      revert\n    tag_16:\n      pop\n      tag_17\n      tag_18\n      jump\t// in\n    tag_17:\n      stop\n        /* \"Fundme.sol\":337:376  uint public constant MINIMUM_USD = 5e18 */\n    tag_4:\n      callvalue\n      dup1\n      iszero\n      tag_19\n      jumpi\n      0x00\n      dup1\n      revert\n    tag_19:\n      pop\n      tag_20\n      tag_21\n      jump\t// in\n    tag_20:\n      mload(0x40)\n      tag_22\n      swap2\n      swap1\n      tag_23\n      jump\t// in\n    tag_22:\n      mload(0x40)\n      dup1\n      swap2\n      sub\n      swap1\n      return\n        /* \"Fundme.sol\":537:765  function fund() public payable {... */\n    tag_5:\n      tag_24\n      tag_12\n      jump\t// in\n    tag_24:\n      stop\n        /* \"Fundme.sol\":414:470  mapping(address => uint256) public addressToFundedAmount */\n    tag_6:\n      callvalue\n      dup1\n      iszero\n      tag_25\n      jumpi\n      0x00\n      dup1\n      revert\n    tag_25:\n      pop\n      tag_26\n      0x04\n      dup1\n      calldatasize\n      sub\n      dup2\n      add\n      swap1\n      tag_27\n      swap2\n      swap1\n      tag_28\n      jump\t// in\n    tag_27:\n      tag_29\n      jump\t// in\n    tag_26:\n      mload(0x40)\n      tag_30\n      swap2\n      swap1\n      tag_23\n      jump\t// in\n    tag_30:\n      mload(0x40)\n      dup1\n      swap2\n      sub\n      swap1\n      return\n        /* \"Fundme.sol\":298:330  address public immutable i_owner */\n    tag_7:\n      callvalue\n      dup1\n      iszero\n      tag_31\n      jumpi\n      0x00\n      dup1\n      revert\n    tag_31:\n      pop\n      tag_32\n      tag_33\n      jump\t// in\n    tag_32:\n      mload(0x40)\n      tag_34\n      swap2\n      swap1\n      tag_35\n      jump\t// in\n    tag_34:\n      mload(0x40)\n      dup1\n      swap2\n      sub\n      swap1\n      return\n        /* \"Fundme.sol\":383:407  address[] public funders */\n    tag_8:\n      callvalue\n      dup1\n      iszero\n      tag_36\n      jumpi\n      0x00\n      dup1\n      revert\n    tag_36:\n      pop\n      tag_37\n      0x04\n      dup1\n      calldatasize\n      sub\n      dup2\n      add\n      swap1\n      tag_38\n      swap2\n      swap1\n      tag_39\n      jump\t// in\n    tag_38:\n      tag_40\n      jump\t// in\n    tag_37:\n      mload(0x40)\n      tag_41\n      swap2\n      swap1\n      tag_35\n      jump\t// in\n    tag_41:\n      mload(0x40)\n      dup1\n      swap2\n      sub\n      swap1\n      return\n        /* \"Fundme.sol\":537:765  function fund() public payable {... */\n    tag_12:\n        /* \"Fundme.sol\":372:376  5e18 */\n      0x4563918244f40000\n        /* \"Fundme.sol\":597:626  msg.value.getConversionRate() */\n      tag_43\n        /* \"Fundme.sol\":597:606  msg.value */\n      callvalue\n        /* \"Fundme.sol\":597:624  msg.value.getConversionRate */\n      tag_44\n        /* \"Fundme.sol\":597:626  msg.value.getConversionRate() */\n      jump\t// in\n    tag_43:\n        /* \"Fundme.sol\":597:639  msg.value.getConversionRate()>=MINIMUM_USD */\n      lt\n      iszero\n        /* \"Fundme.sol\":589:665  require(msg.value.getConversionRate()>=MINIMUM_USD,\"didn't send enough ETH\") */\n      tag_45\n      jumpi\n      mload(0x40)\n      0x08c379a000000000000000000000000000000000000000000000000000000000\n      dup2\n      mstore\n      0x04\n      add\n      tag_46\n      swap1\n      tag_47\n      jump\t// in\n    tag_46:\n      mload(0x40)\n      dup1\n      swap2\n      sub\n      swap1\n      revert\n    tag_45:\n        /* \"Fundme.sol\":676:683  funders */\n      0x00\n        /* \"Fundme.sol\":689:699  msg.sender */\n      caller\n        /* \"Fundme.sol\":676:700  funders.push(msg.sender) */\n      swap1\n      dup1\n      0x01\n      dup2\n      sload\n      add\n      dup1\n      dup3\n      sstore\n      dup1\n      swap2\n      pop\n      pop\n      0x01\n      swap1\n      sub\n      swap1\n      0x00\n      mstore\n      keccak256(0x00, 0x20)\n      add\n      0x00\n      swap1\n      swap2\n      swap1\n      swap2\n      swap1\n      swap2\n      0x0100\n      exp\n      dup2\n      sload\n      dup2\n      0xffffffffffffffffffffffffffffffffffffffff\n      mul\n      not\n      and\n      swap1\n      dup4\n      0xffffffffffffffffffffffffffffffffffffffff\n      and\n      mul\n      or\n      swap1\n      sstore\n      pop\n        /* \"Fundme.sol\":748:757  msg.value */\n      callvalue\n        /* \"Fundme.sol\":711:732  addressToFundedAmount */\n      0x01\n        /* \"Fundme.sol\":711:744  addressToFundedAmount[msg.sender] */\n      0x00\n        /* \"Fundme.sol\":733:743  msg.sender */\n      caller\n        /* \"Fundme.sol\":711:744  addressToFundedAmount[msg.sender] */\n      0xffffffffffffffffffffffffffffffffffffffff\n      and\n      0xffffffffffffffffffffffffffffffffffffffff\n      and\n      dup2\n      mstore\n      0x20\n      add\n      swap1\n      dup2\n      mstore\n      0x20\n      add\n      0x00\n      keccak256\n      0x00\n        /* \"Fundme.sol\":711:757  addressToFundedAmount[msg.sender] += msg.value */\n      dup3\n      dup3\n      sload\n      tag_49\n      swap2\n      swap1\n      tag_50\n      jump\t// in\n    tag_49:\n      swap3\n      pop\n      pop\n      dup2\n      swap1\n      sstore\n      pop\n        /* \"Fundme.sol\":537:765  function fund() public payable {... */\n      jump\t// out\n        /* \"Fundme.sol\":771:1482  function withdraw() public onlyOwner {... */\n    tag_18:\n        /* \"Fundme.sol\":1604:1611  i_owner */\n      immutable(\"0x59d26ca75eb04b47ab1bca5d789d02e4d0cf9ff8cb49c9041caeeeab4eccafbf\")\n        /* \"Fundme.sol\":1591:1611  msg.sender!= i_owner */\n      0xffffffffffffffffffffffffffffffffffffffff\n      and\n        /* \"Fundme.sol\":1591:1601  msg.sender */\n      caller\n        /* \"Fundme.sol\":1591:1611  msg.sender!= i_owner */\n      0xffffffffffffffffffffffffffffffffffffffff\n      and\n      eq\n        /* \"Fundme.sol\":1588:1632  if(msg.sender!= i_owner){revert NotOwner();} */\n      tag_52\n      jumpi\n        /* \"Fundme.sol\":1620:1630  NotOwner() */\n      mload(0x40)\n      0x30cd747100000000000000000000000000000000000000000000000000000000\n      dup2\n      mstore\n      0x04\n      add\n      mload(0x40)\n      dup1\n      swap2\n      sub\n      swap1\n      revert\n        /* \"Fundme.sol\":1588:1632  if(msg.sender!= i_owner){revert NotOwner();} */\n    tag_52:\n        /* \"Fundme.sol\":823:839  uint funderIndex */\n      0x00\n        /* \"Fundme.sol\":819:998  for(uint funderIndex = 0; funderIndex<funders.length;funderIndex++){... */\n    tag_54:\n        /* \"Fundme.sol\":857:864  funders */\n      0x00\n        /* \"Fundme.sol\":857:871  funders.length */\n      dup1\n      sload\n      swap1\n      pop\n        /* \"Fundme.sol\":845:856  funderIndex */\n      dup2\n        /* \"Fundme.sol\":845:871  funderIndex<funders.length */\n      lt\n        /* \"Fundme.sol\":819:998  for(uint funderIndex = 0; funderIndex<funders.length;funderIndex++){... */\n      iszero\n      tag_55\n      jumpi\n        /* \"Fundme.sol\":901:915  address funder */\n      0x00\n        /* \"Fundme.sol\":918:925  funders */\n      dup1\n        /* \"Fundme.sol\":926:937  funderIndex */\n      dup3\n        /* \"Fundme.sol\":918:938  funders[funderIndex] */\n      dup2\n      sload\n      dup2\n      lt\n      tag_57\n      jumpi\n      tag_58\n      tag_59\n      jump\t// in\n    tag_58:\n    tag_57:\n      swap1\n      0x00\n      mstore\n      keccak256(0x00, 0x20)\n      add\n      0x00\n      swap1\n      sload\n      swap1\n      0x0100\n      exp\n      swap1\n      div\n      0xffffffffffffffffffffffffffffffffffffffff\n      and\n        /* \"Fundme.sol\":901:938  address funder = funders[funderIndex] */\n      swap1\n      pop\n        /* \"Fundme.sol\":985:986  0 */\n      0x00\n        /* \"Fundme.sol\":953:974  addressToFundedAmount */\n      0x01\n        /* \"Fundme.sol\":953:982  addressToFundedAmount[funder] */\n      0x00\n        /* \"Fundme.sol\":975:981  funder */\n      dup4\n        /* \"Fundme.sol\":953:982  addressToFundedAmount[funder] */\n      0xffffffffffffffffffffffffffffffffffffffff\n      and\n      0xffffffffffffffffffffffffffffffffffffffff\n      and\n      dup2\n      mstore\n      0x20\n      add\n      swap1\n      dup2\n      mstore\n      0x20\n      add\n      0x00\n      keccak256\n        /* \"Fundme.sol\":953:986  addressToFundedAmount[funder] = 0 */\n      dup2\n      swap1\n      sstore\n      pop\n        /* \"Fundme.sol\":886:998  {... */\n      pop\n        /* \"Fundme.sol\":872:885  funderIndex++ */\n      dup1\n      dup1\n      tag_61\n      swap1\n      tag_62\n      jump\t// in\n    tag_61:\n      swap2\n      pop\n      pop\n        /* \"Fundme.sol\":819:998  for(uint funderIndex = 0; funderIndex<funders.length;funderIndex++){... */\n      jump(tag_54)\n    tag_55:\n      pop\n        /* \"Fundme.sol\":1300:1316  bool callSuccess */\n      0x00\n        /* \"Fundme.sol\":1327:1337  msg.sender */\n      caller\n        /* \"Fundme.sol\":1319:1343  payable(msg.sender).call */\n      0xffffffffffffffffffffffffffffffffffffffff\n      and\n        /* \"Fundme.sol\":1351:1372  address(this).balance */\n      selfbalance\n        /* \"Fundme.sol\":1319:1377  payable(msg.sender).call{value: address(this).balance}(\"\") */\n      mload(0x40)\n      tag_63\n      swap1\n      tag_64\n      jump\t// in\n    tag_63:\n      0x00\n      mload(0x40)\n      dup1\n      dup4\n      sub\n      dup2\n      dup6\n      dup8\n      gas\n      call\n      swap3\n      pop\n      pop\n      pop\n      returndatasize\n      dup1\n      0x00\n      dup2\n      eq\n      tag_67\n      jumpi\n      mload(0x40)\n      swap2\n      pop\n      and(add(returndatasize, 0x3f), not(0x1f))\n      dup3\n      add\n      0x40\n      mstore\n      returndatasize\n      dup3\n      mstore\n      returndatasize\n      0x00\n      0x20\n      dup5\n      add\n      returndatacopy\n      jump(tag_66)\n    tag_67:\n      0x60\n      swap2\n      pop\n    tag_66:\n      pop\n        /* \"Fundme.sol\":1299:1377  (bool callSuccess,)=payable(msg.sender).call{value: address(this).balance}(\"\") */\n      pop\n      swap1\n      pop\n        /* \"Fundme.sol\":1441:1452  callSuccess */\n      dup1\n        /* \"Fundme.sol\":1436:1475  if (!callSuccess){revert CallFailed();} */\n      tag_68\n      jumpi\n        /* \"Fundme.sol\":1461:1473  CallFailed() */\n      mload(0x40)\n      0x3204506f00000000000000000000000000000000000000000000000000000000\n      dup2\n      mstore\n      0x04\n      add\n      mload(0x40)\n      dup1\n      swap2\n      sub\n      swap1\n      revert\n        /* \"Fundme.sol\":1436:1475  if (!callSuccess){revert CallFailed();} */\n    tag_68:\n        /* \"Fundme.sol\":808:1482  {... */\n      pop\n        /* \"Fundme.sol\":771:1482  function withdraw() public onlyOwner {... */\n      jump\t// out\n        /* \"Fundme.sol\":337:376  uint public constant MINIMUM_USD = 5e18 */\n    tag_21:\n        /* \"Fundme.sol\":372:376  5e18 */\n      0x4563918244f40000\n        /* \"Fundme.sol\":337:376  uint public constant MINIMUM_USD = 5e18 */\n      dup2\n      jump\t// out\n        /* \"Fundme.sol\":414:470  mapping(address => uint256) public addressToFundedAmount */\n    tag_29:\n      mstore(0x20, 0x01)\n      dup1\n      0x00\n      mstore\n      keccak256(0x00, 0x40)\n      0x00\n      swap2\n      pop\n      swap1\n      pop\n      sload\n      dup2\n      jump\t// out\n        /* \"Fundme.sol\":298:330  address public immutable i_owner */\n    tag_33:\n      immutable(\"0x59d26ca75eb04b47ab1bca5d789d02e4d0cf9ff8cb49c9041caeeeab4eccafbf\")\n      dup2\n      jump\t// out\n        /* \"Fundme.sol\":383:407  address[] public funders */\n    tag_40:\n      0x00\n      dup2\n      dup2\n      sload\n      dup2\n      lt\n      tag_69\n      jumpi\n      0x00\n      dup1\n      revert\n    tag_69:\n      swap1\n      0x00\n      mstore\n      keccak256(0x00, 0x20)\n      add\n      0x00\n      swap2\n      pop\n      sload\n      swap1\n      0x0100\n      exp\n      swap1\n      div\n      0xffffffffffffffffffffffffffffffffffffffff\n      and\n      dup2\n      jump\t// out\n        /* \"PriceConverter.sol\":477:689  function getConversionRate(uint256 amount) internal view returns(uint256){... */\n    tag_44:\n        /* \"PriceConverter.sol\":542:549  uint256 */\n      0x00\n        /* \"PriceConverter.sol\":561:577  uint256 ethPrice */\n      dup1\n        /* \"PriceConverter.sol\":580:590  getPrice() */\n      tag_72\n        /* \"PriceConverter.sol\":580:588  getPrice */\n      tag_73\n        /* \"PriceConverter.sol\":580:590  getPrice() */\n      jump\t// in\n    tag_72:\n        /* \"PriceConverter.sol\":561:590  uint256 ethPrice = getPrice() */\n      swap1\n      pop\n        /* \"PriceConverter.sol\":601:623  uint256 ethAmountInUsd */\n      0x00\n        /* \"PriceConverter.sol\":644:648  1e18 */\n      0x0de0b6b3a7640000\n        /* \"PriceConverter.sol\":636:642  amount */\n      dup5\n        /* \"PriceConverter.sol\":627:635  ethPrice */\n      dup4\n        /* \"PriceConverter.sol\":627:642  ethPrice*amount */\n      tag_74\n      swap2\n      swap1\n      tag_75\n      jump\t// in\n    tag_74:\n        /* \"PriceConverter.sol\":626:648  (ethPrice*amount)/1e18 */\n      tag_76\n      swap2\n      swap1\n      tag_77\n      jump\t// in\n    tag_76:\n        /* \"PriceConverter.sol\":601:648  uint256 ethAmountInUsd = (ethPrice*amount)/1e18 */\n      swap1\n      pop\n        /* \"PriceConverter.sol\":667:681  ethAmountInUsd */\n      dup1\n        /* \"PriceConverter.sol\":660:681  return ethAmountInUsd */\n      swap3\n      pop\n      pop\n      pop\n        /* \"PriceConverter.sol\":477:689  function getConversionRate(uint256 amount) internal view returns(uint256){... */\n      swap2\n      swap1\n      pop\n      jump\t// out\n        /* \"PriceConverter.sol\":207:471  function getPrice() internal view returns(uint256){... */\n    tag_73:\n        /* \"PriceConverter.sol\":249:256  uint256 */\n      0x00\n        /* \"PriceConverter.sol\":268:299  AggregatorV3Interface pricefeed */\n      dup1\n        /* \"PriceConverter.sol\":324:366  0x694AA1769357215DE4FAC081bf1f309aDC325306 */\n      0x694aa1769357215de4fac081bf1f309adc325306\n        /* \"PriceConverter.sol\":268:367  AggregatorV3Interface pricefeed = AggregatorV3Interface(0x694AA1769357215DE4FAC081bf1f309aDC325306) */\n      swap1\n      pop\n        /* \"PriceConverter.sol\":380:392  int256 price */\n      0x00\n        /* \"PriceConverter.sol\":399:408  pricefeed */\n      dup2\n        /* \"PriceConverter.sol\":399:424  pricefeed.latestRoundData */\n      0xffffffffffffffffffffffffffffffffffffffff\n      and\n      0xfeaf968c\n        /* \"PriceConverter.sol\":399:426  pricefeed.latestRoundData() */\n      mload(0x40)\n      dup2\n      0xffffffff\n      and\n      0xe0\n      shl\n      dup2\n      mstore\n      0x04\n      add\n      0xa0\n      mload(0x40)\n      dup1\n      dup4\n      sub\n      dup2\n      dup7\n      gas\n      staticcall\n      iszero\n      dup1\n      iszero\n      tag_80\n      jumpi\n      returndatasize\n      0x00\n      dup1\n      returndatacopy\n      revert(0x00, returndatasize)\n    tag_80:\n      pop\n      pop\n      pop\n      pop\n      mload(0x40)\n      returndatasize\n      not(0x1f)\n      0x1f\n      dup3\n      add\n      and\n      dup3\n      add\n      dup1\n      0x40\n      mstore\n      pop\n      dup2\n      add\n      swap1\n      tag_81\n      swap2\n      swap1\n      tag_82\n      jump\t// in\n    tag_81:\n        /* \"PriceConverter.sol\":378:426  (,int256 price,,,) = pricefeed.latestRoundData() */\n      pop\n      pop\n      pop\n      swap2\n      pop\n      pop\n        /* \"PriceConverter.sol\":458:462  1e10 */\n      0x02540be400\n        /* \"PriceConverter.sol\":452:457  price */\n      dup2\n        /* \"PriceConverter.sol\":452:462  price*1e10 */\n      tag_83\n      swap2\n      swap1\n      tag_84\n      jump\t// in\n    tag_83:\n        /* \"PriceConverter.sol\":437:463  return uint256(price*1e10) */\n      swap3\n      pop\n      pop\n      pop\n        /* \"PriceConverter.sol\":207:471  function getPrice() internal view returns(uint256){... */\n      swap1\n      jump\t// out\n        /* \"#utility.yul\":7:84   */\n    tag_85:\n        /* \"#utility.yul\":44:51   */\n      0x00\n        /* \"#utility.yul\":73:78   */\n      dup2\n        /* \"#utility.yul\":62:78   */\n      swap1\n      pop\n        /* \"#utility.yul\":7:84   */\n      swap2\n      swap1\n      pop\n      jump\t// out\n        /* \"#utility.yul\":90:208   */\n    tag_86:\n        /* \"#utility.yul\":177:201   */\n      tag_115\n        /* \"#utility.yul\":195:200   */\n      dup2\n        /* \"#utility.yul\":177:201   */\n      tag_85\n      jump\t// in\n    tag_115:\n        /* \"#utility.yul\":172:175   */\n      dup3\n        /* \"#utility.yul\":165:202   */\n      mstore\n        /* \"#utility.yul\":90:208   */\n      pop\n      pop\n      jump\t// out\n        /* \"#utility.yul\":214:436   */\n    tag_23:\n        /* \"#utility.yul\":307:311   */\n      0x00\n        /* \"#utility.yul\":345:347   */\n      0x20\n        /* \"#utility.yul\":334:343   */\n      dup3\n        /* \"#utility.yul\":330:348   */\n      add\n        /* \"#utility.yul\":322:348   */\n      swap1\n      pop\n        /* \"#utility.yul\":358:429   */\n      tag_117\n        /* \"#utility.yul\":426:427   */\n      0x00\n        /* \"#utility.yul\":415:424   */\n      dup4\n        /* \"#utility.yul\":411:428   */\n      add\n        /* \"#utility.yul\":402:408   */\n      dup5\n        /* \"#utility.yul\":358:429   */\n      tag_86\n      jump\t// in\n    tag_117:\n        /* \"#utility.yul\":214:436   */\n      swap3\n      swap2\n      pop\n      pop\n      jump\t// out\n        /* \"#utility.yul\":523:640   */\n    tag_88:\n        /* \"#utility.yul\":632:633   */\n      0x00\n        /* \"#utility.yul\":629:630   */\n      dup1\n        /* \"#utility.yul\":622:634   */\n      revert\n        /* \"#utility.yul\":769:895   */\n    tag_90:\n        /* \"#utility.yul\":806:813   */\n      0x00\n        /* \"#utility.yul\":846:888   */\n      0xffffffffffffffffffffffffffffffffffffffff\n        /* \"#utility.yul\":839:844   */\n      dup3\n        /* \"#utility.yul\":835:889   */\n      and\n        /* \"#utility.yul\":824:889   */\n      swap1\n      pop\n        /* \"#utility.yul\":769:895   */\n      swap2\n      swap1\n      pop\n      jump\t// out\n        /* \"#utility.yul\":901:997   */\n    tag_91:\n        /* \"#utility.yul\":938:945   */\n      0x00\n        /* \"#utility.yul\":967:991   */\n      tag_123\n        /* \"#utility.yul\":985:990   */\n      dup3\n        /* \"#utility.yul\":967:991   */\n      tag_90\n      jump\t// in\n    tag_123:\n        /* \"#utility.yul\":956:991   */\n      swap1\n      pop\n        /* \"#utility.yul\":901:997   */\n      swap2\n      swap1\n      pop\n      jump\t// out\n        /* \"#utility.yul\":1003:1125   */\n    tag_92:\n        /* \"#utility.yul\":1076:1100   */\n      tag_125\n        /* \"#utility.yul\":1094:1099   */\n      dup2\n        /* \"#utility.yul\":1076:1100   */\n      tag_91\n      jump\t// in\n    tag_125:\n        /* \"#utility.yul\":1069:1074   */\n      dup2\n        /* \"#utility.yul\":1066:1101   */\n      eq\n        /* \"#utility.yul\":1056:1119   */\n      tag_126\n      jumpi\n        /* \"#utility.yul\":1115:1116   */\n      0x00\n        /* \"#utility.yul\":1112:1113   */\n      dup1\n        /* \"#utility.yul\":1105:1117   */\n      revert\n        /* \"#utility.yul\":1056:1119   */\n    tag_126:\n        /* \"#utility.yul\":1003:1125   */\n      pop\n      jump\t// out\n        /* \"#utility.yul\":1131:1270   */\n    tag_93:\n        /* \"#utility.yul\":1177:1182   */\n      0x00\n        /* \"#utility.yul\":1215:1221   */\n      dup2\n        /* \"#utility.yul\":1202:1222   */\n      calldataload\n        /* \"#utility.yul\":1193:1222   */\n      swap1\n      pop\n        /* \"#utility.yul\":1231:1264   */\n      tag_128\n        /* \"#utility.yul\":1258:1263   */\n      dup2\n        /* \"#utility.yul\":1231:1264   */\n      tag_92\n      jump\t// in\n    tag_128:\n        /* \"#utility.yul\":1131:1270   */\n      swap3\n      swap2\n      pop\n      pop\n      jump\t// out\n        /* \"#utility.yul\":1276:1605   */\n    tag_28:\n        /* \"#utility.yul\":1335:1341   */\n      0x00\n        /* \"#utility.yul\":1384:1386   */\n      0x20\n        /* \"#utility.yul\":1372:1381   */\n      dup3\n        /* \"#utility.yul\":1363:1370   */\n      dup5\n        /* \"#utility.yul\":1359:1382   */\n      sub\n        /* \"#utility.yul\":1355:1387   */\n      slt\n        /* \"#utility.yul\":1352:1471   */\n      iszero\n      tag_130\n      jumpi\n        /* \"#utility.yul\":1390:1469   */\n      tag_131\n      tag_88\n      jump\t// in\n    tag_131:\n        /* \"#utility.yul\":1352:1471   */\n    tag_130:\n        /* \"#utility.yul\":1510:1511   */\n      0x00\n        /* \"#utility.yul\":1535:1588   */\n      tag_132\n        /* \"#utility.yul\":1580:1587   */\n      dup5\n        /* \"#utility.yul\":1571:1577   */\n      dup3\n        /* \"#utility.yul\":1560:1569   */\n      dup6\n        /* \"#utility.yul\":1556:1578   */\n      add\n        /* \"#utility.yul\":1535:1588   */\n      tag_93\n      jump\t// in\n    tag_132:\n        /* \"#utility.yul\":1525:1588   */\n      swap2\n      pop\n        /* \"#utility.yul\":1481:1598   */\n      pop\n        /* \"#utility.yul\":1276:1605   */\n      swap3\n      swap2\n      pop\n      pop\n      jump\t// out\n        /* \"#utility.yul\":1611:1729   */\n    tag_94:\n        /* \"#utility.yul\":1698:1722   */\n      tag_134\n        /* \"#utility.yul\":1716:1721   */\n      dup2\n        /* \"#utility.yul\":1698:1722   */\n      tag_91\n      jump\t// in\n    tag_134:\n        /* \"#utility.yul\":1693:1696   */\n      dup3\n        /* \"#utility.yul\":1686:1723   */\n      mstore\n        /* \"#utility.yul\":1611:1729   */\n      pop\n      pop\n      jump\t// out\n        /* \"#utility.yul\":1735:1957   */\n    tag_35:\n        /* \"#utility.yul\":1828:1832   */\n      0x00\n        /* \"#utility.yul\":1866:1868   */\n      0x20\n        /* \"#utility.yul\":1855:1864   */\n      dup3\n        /* \"#utility.yul\":1851:1869   */\n      add\n        /* \"#utility.yul\":1843:1869   */\n      swap1\n      pop\n        /* \"#utility.yul\":1879:1950   */\n      tag_136\n        /* \"#utility.yul\":1947:1948   */\n      0x00\n        /* \"#utility.yul\":1936:1945   */\n      dup4\n        /* \"#utility.yul\":1932:1949   */\n      add\n        /* \"#utility.yul\":1923:1929   */\n      dup5\n        /* \"#utility.yul\":1879:1950   */\n      tag_94\n      jump\t// in\n    tag_136:\n        /* \"#utility.yul\":1735:1957   */\n      swap3\n      swap2\n      pop\n      pop\n      jump\t// out\n        /* \"#utility.yul\":1963:2085   */\n    tag_95:\n        /* \"#utility.yul\":2036:2060   */\n      tag_138\n        /* \"#utility.yul\":2054:2059   */\n      dup2\n        /* \"#utility.yul\":2036:2060   */\n      tag_85\n      jump\t// in\n    tag_138:\n        /* \"#utility.yul\":2029:2034   */\n      dup2\n        /* \"#utility.yul\":2026:2061   */\n      eq\n        /* \"#utility.yul\":2016:2079   */\n      tag_139\n      jumpi\n        /* \"#utility.yul\":2075:2076   */\n      0x00\n        /* \"#utility.yul\":2072:2073   */\n      dup1\n        /* \"#utility.yul\":2065:2077   */\n      revert\n        /* \"#utility.yul\":2016:2079   */\n    tag_139:\n        /* \"#utility.yul\":1963:2085   */\n      pop\n      jump\t// out\n        /* \"#utility.yul\":2091:2230   */\n    tag_96:\n        /* \"#utility.yul\":2137:2142   */\n      0x00\n        /* \"#utility.yul\":2175:2181   */\n      dup2\n        /* \"#utility.yul\":2162:2182   */\n      calldataload\n        /* \"#utility.yul\":2153:2182   */\n      swap1\n      pop\n        /* \"#utility.yul\":2191:2224   */\n      tag_141\n        /* \"#utility.yul\":2218:2223   */\n      dup2\n        /* \"#utility.yul\":2191:2224   */\n      tag_95\n      jump\t// in\n    tag_141:\n        /* \"#utility.yul\":2091:2230   */\n      swap3\n      swap2\n      pop\n      pop\n      jump\t// out\n        /* \"#utility.yul\":2236:2565   */\n    tag_39:\n        /* \"#utility.yul\":2295:2301   */\n      0x00\n        /* \"#utility.yul\":2344:2346   */\n      0x20\n        /* \"#utility.yul\":2332:2341   */\n      dup3\n        /* \"#utility.yul\":2323:2330   */\n      dup5\n        /* \"#utility.yul\":2319:2342   */\n      sub\n        /* \"#utility.yul\":2315:2347   */\n      slt\n        /* \"#utility.yul\":2312:2431   */\n      iszero\n      tag_143\n      jumpi\n        /* \"#utility.yul\":2350:2429   */\n      tag_144\n      tag_88\n      jump\t// in\n    tag_144:\n        /* \"#utility.yul\":2312:2431   */\n    tag_143:\n        /* \"#utility.yul\":2470:2471   */\n      0x00\n        /* \"#utility.yul\":2495:2548   */\n      tag_145\n        /* \"#utility.yul\":2540:2547   */\n      dup5\n        /* \"#utility.yul\":2531:2537   */\n      dup3\n        /* \"#utility.yul\":2520:2529   */\n      dup6\n        /* \"#utility.yul\":2516:2538   */\n      add\n        /* \"#utility.yul\":2495:2548   */\n      tag_96\n      jump\t// in\n    tag_145:\n        /* \"#utility.yul\":2485:2548   */\n      swap2\n      pop\n        /* \"#utility.yul\":2441:2558   */\n      pop\n        /* \"#utility.yul\":2236:2565   */\n      swap3\n      swap2\n      pop\n      pop\n      jump\t// out\n        /* \"#utility.yul\":2571:2740   */\n    tag_97:\n        /* \"#utility.yul\":2655:2666   */\n      0x00\n        /* \"#utility.yul\":2689:2695   */\n      dup3\n        /* \"#utility.yul\":2684:2687   */\n      dup3\n        /* \"#utility.yul\":2677:2696   */\n      mstore\n        /* \"#utility.yul\":2729:2733   */\n      0x20\n        /* \"#utility.yul\":2724:2727   */\n      dup3\n        /* \"#utility.yul\":2720:2734   */\n      add\n        /* \"#utility.yul\":2705:2734   */\n      swap1\n      pop\n        /* \"#utility.yul\":2571:2740   */\n      swap3\n      swap2\n      pop\n      pop\n      jump\t// out\n        /* \"#utility.yul\":2746:2918   */\n    tag_98:\n        /* \"#utility.yul\":2886:2910   */\n      0x6469646e27742073656e6420656e6f7567682045544800000000000000000000\n        /* \"#utility.yul\":2882:2883   */\n      0x00\n        /* \"#utility.yul\":2874:2880   */\n      dup3\n        /* \"#utility.yul\":2870:2884   */\n      add\n        /* \"#utility.yul\":2863:2911   */\n      mstore\n        /* \"#utility.yul\":2746:2918   */\n      pop\n      jump\t// out\n        /* \"#utility.yul\":2924:3290   */\n    tag_99:\n        /* \"#utility.yul\":3066:3069   */\n      0x00\n        /* \"#utility.yul\":3087:3154   */\n      tag_149\n        /* \"#utility.yul\":3151:3153   */\n      0x16\n        /* \"#utility.yul\":3146:3149   */\n      dup4\n        /* \"#utility.yul\":3087:3154   */\n      tag_97\n      jump\t// in\n    tag_149:\n        /* \"#utility.yul\":3080:3154   */\n      swap2\n      pop\n        /* \"#utility.yul\":3163:3256   */\n      tag_150\n        /* \"#utility.yul\":3252:3255   */\n      dup3\n        /* \"#utility.yul\":3163:3256   */\n      tag_98\n      jump\t// in\n    tag_150:\n        /* \"#utility.yul\":3281:3283   */\n      0x20\n        /* \"#utility.yul\":3276:3279   */\n      dup3\n        /* \"#utility.yul\":3272:3284   */\n      add\n        /* \"#utility.yul\":3265:3284   */\n      swap1\n      pop\n        /* \"#utility.yul\":2924:3290   */\n      swap2\n      swap1\n      pop\n      jump\t// out\n        /* \"#utility.yul\":3296:3715   */\n    tag_47:\n        /* \"#utility.yul\":3462:3466   */\n      0x00\n        /* \"#utility.yul\":3500:3502   */\n      0x20\n        /* \"#utility.yul\":3489:3498   */\n      dup3\n        /* \"#utility.yul\":3485:3503   */\n      add\n        /* \"#utility.yul\":3477:3503   */\n      swap1\n      pop\n        /* \"#utility.yul\":3549:3558   */\n      dup2\n        /* \"#utility.yul\":3543:3547   */\n      dup2\n        /* \"#utility.yul\":3539:3559   */\n      sub\n        /* \"#utility.yul\":3535:3536   */\n      0x00\n        /* \"#utility.yul\":3524:3533   */\n      dup4\n        /* \"#utility.yul\":3520:3537   */\n      add\n        /* \"#utility.yul\":3513:3560   */\n      mstore\n        /* \"#utility.yul\":3577:3708   */\n      tag_152\n        /* \"#utility.yul\":3703:3707   */\n      dup2\n        /* \"#utility.yul\":3577:3708   */\n      tag_99\n      jump\t// in\n    tag_152:\n        /* \"#utility.yul\":3569:3708   */\n      swap1\n      pop\n        /* \"#utility.yul\":3296:3715   */\n      swap2\n      swap1\n      pop\n      jump\t// out\n        /* \"#utility.yul\":3721:3901   */\n    tag_100:\n        /* \"#utility.yul\":3769:3846   */\n      0x4e487b7100000000000000000000000000000000000000000000000000000000\n        /* \"#utility.yul\":3766:3767   */\n      0x00\n        /* \"#utility.yul\":3759:3847   */\n      mstore\n        /* \"#utility.yul\":3866:3870   */\n      0x11\n        /* \"#utility.yul\":3863:3864   */\n      0x04\n        /* \"#utility.yul\":3856:3871   */\n      mstore\n        /* \"#utility.yul\":3890:3894   */\n      0x24\n        /* \"#utility.yul\":3887:3888   */\n      0x00\n        /* \"#utility.yul\":3880:3895   */\n      revert\n        /* \"#utility.yul\":3907:4098   */\n    tag_50:\n        /* \"#utility.yul\":3947:3950   */\n      0x00\n        /* \"#utility.yul\":3966:3986   */\n      tag_155\n        /* \"#utility.yul\":3984:3985   */\n      dup3\n        /* \"#utility.yul\":3966:3986   */\n      tag_85\n      jump\t// in\n    tag_155:\n        /* \"#utility.yul\":3961:3986   */\n      swap2\n      pop\n        /* \"#utility.yul\":4000:4020   */\n      tag_156\n        /* \"#utility.yul\":4018:4019   */\n      dup4\n        /* \"#utility.yul\":4000:4020   */\n      tag_85\n      jump\t// in\n    tag_156:\n        /* \"#utility.yul\":3995:4020   */\n      swap3\n      pop\n        /* \"#utility.yul\":4043:4044   */\n      dup3\n        /* \"#utility.yul\":4040:4041   */\n      dup3\n        /* \"#utility.yul\":4036:4045   */\n      add\n        /* \"#utility.yul\":4029:4045   */\n      swap1\n      pop\n        /* \"#utility.yul\":4064:4067   */\n      dup1\n        /* \"#utility.yul\":4061:4062   */\n      dup3\n        /* \"#utility.yul\":4058:4068   */\n      gt\n        /* \"#utility.yul\":4055:4091   */\n      iszero\n      tag_157\n      jumpi\n        /* \"#utility.yul\":4071:4089   */\n      tag_158\n      tag_100\n      jump\t// in\n    tag_158:\n        /* \"#utility.yul\":4055:4091   */\n    tag_157:\n        /* \"#utility.yul\":3907:4098   */\n      swap3\n      swap2\n      pop\n      pop\n      jump\t// out\n        /* \"#utility.yul\":4104:4284   */\n    tag_59:\n        /* \"#utility.yul\":4152:4229   */\n      0x4e487b7100000000000000000000000000000000000000000000000000000000\n        /* \"#utility.yul\":4149:4150   */\n      0x00\n        /* \"#utility.yul\":4142:4230   */\n      mstore\n        /* \"#utility.yul\":4249:4253   */\n      0x32\n        /* \"#utility.yul\":4246:4247   */\n      0x04\n        /* \"#utility.yul\":4239:4254   */\n      mstore\n        /* \"#utility.yul\":4273:4277   */\n      0x24\n        /* \"#utility.yul\":4270:4271   */\n      0x00\n        /* \"#utility.yul\":4263:4278   */\n      revert\n        /* \"#utility.yul\":4290:4523   */\n    tag_62:\n        /* \"#utility.yul\":4329:4332   */\n      0x00\n        /* \"#utility.yul\":4352:4376   */\n      tag_161\n        /* \"#utility.yul\":4370:4375   */\n      dup3\n        /* \"#utility.yul\":4352:4376   */\n      tag_85\n      jump\t// in\n    tag_161:\n        /* \"#utility.yul\":4343:4376   */\n      swap2\n      pop\n        /* \"#utility.yul\":4398:4464   */\n      0xffffffffffffffffffffffffffffffffffffffffffffffffffffffffffffffff\n        /* \"#utility.yul\":4391:4396   */\n      dup3\n        /* \"#utility.yul\":4388:4465   */\n      sub\n        /* \"#utility.yul\":4385:4488   */\n      tag_162\n      jumpi\n        /* \"#utility.yul\":4468:4486   */\n      tag_163\n      tag_100\n      jump\t// in\n    tag_163:\n        /* \"#utility.yul\":4385:4488   */\n    tag_162:\n        /* \"#utility.yul\":4515:4516   */\n      0x01\n        /* \"#utility.yul\":4508:4513   */\n      dup3\n        /* \"#utility.yul\":4504:4517   */\n      add\n        /* \"#utility.yul\":4497:4517   */\n      swap1\n      pop\n        /* \"#utility.yul\":4290:4523   */\n      swap2\n      swap1\n      pop\n      jump\t// out\n        /* \"#utility.yul\":4529:4676   */\n    tag_101:\n        /* \"#utility.yul\":4630:4641   */\n      0x00\n        /* \"#utility.yul\":4667:4670   */\n      dup2\n        /* \"#utility.yul\":4652:4670   */\n      swap1\n      pop\n        /* \"#utility.yul\":4529:4676   */\n      swap3\n      swap2\n      pop\n      pop\n      jump\t// out\n        /* \"#utility.yul\":4682:4796   */\n    tag_102:\n      pop\n      jump\t// out\n        /* \"#utility.yul\":4802:5200   */\n    tag_103:\n        /* \"#utility.yul\":4961:4964   */\n      0x00\n        /* \"#utility.yul\":4982:5065   */\n      tag_167\n        /* \"#utility.yul\":5063:5064   */\n      0x00\n        /* \"#utility.yul\":5058:5061   */\n      dup4\n        /* \"#utility.yul\":4982:5065   */\n      tag_101\n      jump\t// in\n    tag_167:\n        /* \"#utility.yul\":4975:5065   */\n      swap2\n      pop\n        /* \"#utility.yul\":5074:5167   */\n      tag_168\n        /* \"#utility.yul\":5163:5166   */\n      dup3\n        /* \"#utility.yul\":5074:5167   */\n      tag_102\n      jump\t// in\n    tag_168:\n        /* \"#utility.yul\":5192:5193   */\n      0x00\n        /* \"#utility.yul\":5187:5190   */\n      dup3\n        /* \"#utility.yul\":5183:5194   */\n      add\n        /* \"#utility.yul\":5176:5194   */\n      swap1\n      pop\n        /* \"#utility.yul\":4802:5200   */\n      swap2\n      swap1\n      pop\n      jump\t// out\n        /* \"#utility.yul\":5206:5585   */\n    tag_64:\n        /* \"#utility.yul\":5390:5393   */\n      0x00\n        /* \"#utility.yul\":5412:5559   */\n      tag_170\n        /* \"#utility.yul\":5555:5558   */\n      dup3\n        /* \"#utility.yul\":5412:5559   */\n      tag_103\n      jump\t// in\n    tag_170:\n        /* \"#utility.yul\":5405:5559   */\n      swap2\n      pop\n        /* \"#utility.yul\":5576:5579   */\n      dup2\n        /* \"#utility.yul\":5569:5579   */\n      swap1\n      pop\n        /* \"#utility.yul\":5206:5585   */\n      swap2\n      swap1\n      pop\n      jump\t// out\n        /* \"#utility.yul\":5591:6001   */\n    tag_75:\n        /* \"#utility.yul\":5631:5638   */\n      0x00\n        /* \"#utility.yul\":5654:5674   */\n      tag_172\n        /* \"#utility.yul\":5672:5673   */\n      dup3\n        /* \"#utility.yul\":5654:5674   */\n      tag_85\n      jump\t// in\n    tag_172:\n        /* \"#utility.yul\":5649:5674   */\n      swap2\n      pop\n        /* \"#utility.yul\":5688:5708   */\n      tag_173\n        /* \"#utility.yul\":5706:5707   */\n      dup4\n        /* \"#utility.yul\":5688:5708   */\n      tag_85\n      jump\t// in\n    tag_173:\n        /* \"#utility.yul\":5683:5708   */\n      swap3\n      pop\n        /* \"#utility.yul\":5743:5744   */\n      dup3\n        /* \"#utility.yul\":5740:5741   */\n      dup3\n        /* \"#utility.yul\":5736:5745   */\n      mul\n        /* \"#utility.yul\":5765:5795   */\n      tag_174\n        /* \"#utility.yul\":5783:5794   */\n      dup2\n        /* \"#utility.yul\":5765:5795   */\n      tag_85\n      jump\t// in\n    tag_174:\n        /* \"#utility.yul\":5754:5795   */\n      swap2\n      pop\n        /* \"#utility.yul\":5944:5945   */\n      dup3\n        /* \"#utility.yul\":5935:5942   */\n      dup3\n        /* \"#utility.yul\":5931:5946   */\n      div\n        /* \"#utility.yul\":5928:5929   */\n      dup5\n        /* \"#utility.yul\":5925:5947   */\n      eq\n        /* \"#utility.yul\":5905:5906   */\n      dup4\n        /* \"#utility.yul\":5898:5907   */\n      iszero\n        /* \"#utility.yul\":5878:5961   */\n      or\n        /* \"#utility.yul\":5855:5994   */\n      tag_175\n      jumpi\n        /* \"#utility.yul\":5974:5992   */\n      tag_176\n      tag_100\n      jump\t// in\n    tag_176:\n        /* \"#utility.yul\":5855:5994   */\n    tag_175:\n        /* \"#utility.yul\":5639:6001   */\n      pop\n        /* \"#utility.yul\":5591:6001   */\n      swap3\n      swap2\n      pop\n      pop\n      jump\t// out\n        /* \"#utility.yul\":6007:6187   */\n    tag_104:\n        /* \"#utility.yul\":6055:6132   */\n      0x4e487b7100000000000000000000000000000000000000000000000000000000\n        /* \"#utility.yul\":6052:6053   */\n      0x00\n        /* \"#utility.yul\":6045:6133   */\n      mstore\n        /* \"#utility.yul\":6152:6156   */\n      0x12\n        /* \"#utility.yul\":6149:6150   */\n      0x04\n        /* \"#utility.yul\":6142:6157   */\n      mstore\n        /* \"#utility.yul\":6176:6180   */\n      0x24\n        /* \"#utility.yul\":6173:6174   */\n      0x00\n        /* \"#utility.yul\":6166:6181   */\n      revert\n        /* \"#utility.yul\":6193:6378   */\n    tag_77:\n        /* \"#utility.yul\":6233:6234   */\n      0x00\n        /* \"#utility.yul\":6250:6270   */\n      tag_179\n        /* \"#utility.yul\":6268:6269   */\n      dup3\n        /* \"#utility.yul\":6250:6270   */\n      tag_85\n      jump\t// in\n    tag_179:\n        /* \"#utility.yul\":6245:6270   */\n      swap2\n      pop\n        /* \"#utility.yul\":6284:6304   */\n      tag_180\n        /* \"#utility.yul\":6302:6303   */\n      dup4\n        /* \"#utility.yul\":6284:6304   */\n      tag_85\n      jump\t// in\n    tag_180:\n        /* \"#utility.yul\":6279:6304   */\n      swap3\n      pop\n        /* \"#utility.yul\":6323:6324   */\n      dup3\n        /* \"#utility.yul\":6313:6348   */\n      tag_181\n      jumpi\n        /* \"#utility.yul\":6328:6346   */\n      tag_182\n      tag_104\n      jump\t// in\n    tag_182:\n        /* \"#utility.yul\":6313:6348   */\n    tag_181:\n        /* \"#utility.yul\":6370:6371   */\n      dup3\n        /* \"#utility.yul\":6367:6368   */\n      dup3\n        /* \"#utility.yul\":6363:6372   */\n      div\n        /* \"#utility.yul\":6358:6372   */\n      swap1\n      pop\n        /* \"#utility.yul\":6193:6378   */\n      swap3\n      swap2\n      pop\n      pop\n      jump\t// out\n        /* \"#utility.yul\":6384:6489   */\n    tag_105:\n        /* \"#utility.yul\":6420:6427   */\n      0x00\n        /* \"#utility.yul\":6460:6482   */\n      0xffffffffffffffffffff\n        /* \"#utility.yul\":6453:6458   */\n      dup3\n        /* \"#utility.yul\":6449:6483   */\n      and\n        /* \"#utility.yul\":6438:6483   */\n      swap1\n      pop\n        /* \"#utility.yul\":6384:6489   */\n      swap2\n      swap1\n      pop\n      jump\t// out\n        /* \"#utility.yul\":6495:6615   */\n    tag_106:\n        /* \"#utility.yul\":6567:6590   */\n      tag_185\n        /* \"#utility.yul\":6584:6589   */\n      dup2\n        /* \"#utility.yul\":6567:6590   */\n      tag_105\n      jump\t// in\n    tag_185:\n        /* \"#utility.yul\":6560:6565   */\n      dup2\n        /* \"#utility.yul\":6557:6591   */\n      eq\n        /* \"#utility.yul\":6547:6609   */\n      tag_186\n      jumpi\n        /* \"#utility.yul\":6605:6606   */\n      0x00\n        /* \"#utility.yul\":6602:6603   */\n      dup1\n        /* \"#utility.yul\":6595:6607   */\n      revert\n        /* \"#utility.yul\":6547:6609   */\n    tag_186:\n        /* \"#utility.yul\":6495:6615   */\n      pop\n      jump\t// out\n        /* \"#utility.yul\":6621:6762   */\n    tag_107:\n        /* \"#utility.yul\":6677:6682   */\n      0x00\n        /* \"#utility.yul\":6708:6714   */\n      dup2\n        /* \"#utility.yul\":6702:6715   */\n      mload\n        /* \"#utility.yul\":6693:6715   */\n      swap1\n      pop\n        /* \"#utility.yul\":6724:6756   */\n      tag_188\n        /* \"#utility.yul\":6750:6755   */\n      dup2\n        /* \"#utility.yul\":6724:6756   */\n      tag_106\n      jump\t// in\n    tag_188:\n        /* \"#utility.yul\":6621:6762   */\n      swap3\n      swap2\n      pop\n      pop\n      jump\t// out\n        /* \"#utility.yul\":6768:6844   */\n    tag_108:\n        /* \"#utility.yul\":6804:6811   */\n      0x00\n        /* \"#utility.yul\":6833:6838   */\n      dup2\n        /* \"#utility.yul\":6822:6838   */\n      swap1\n      pop\n        /* \"#utility.yul\":6768:6844   */\n      swap2\n      swap1\n      pop\n      jump\t// out\n        /* \"#utility.yul\":6850:6970   */\n    tag_109:\n        /* \"#utility.yul\":6922:6945   */\n      tag_191\n        /* \"#utility.yul\":6939:6944   */\n      dup2\n        /* \"#utility.yul\":6922:6945   */\n      tag_108\n      jump\t// in\n    tag_191:\n        /* \"#utility.yul\":6915:6920   */\n      dup2\n        /* \"#utility.yul\":6912:6946   */\n      eq\n        /* \"#utility.yul\":6902:6964   */\n      tag_192\n      jumpi\n        /* \"#utility.yul\":6960:6961   */\n      0x00\n        /* \"#utility.yul\":6957:6958   */\n      dup1\n        /* \"#utility.yul\":6950:6962   */\n      revert\n        /* \"#utility.yul\":6902:6964   */\n    tag_192:\n        /* \"#utility.yul\":6850:6970   */\n      pop\n      jump\t// out\n        /* \"#utility.yul\":6976:7117   */\n    tag_110:\n        /* \"#utility.yul\":7032:7037   */\n      0x00\n        /* \"#utility.yul\":7063:7069   */\n      dup2\n        /* \"#utility.yul\":7057:7070   */\n      mload\n        /* \"#utility.yul\":7048:7070   */\n      swap1\n      pop\n        /* \"#utility.yul\":7079:7111   */\n      tag_194\n        /* \"#utility.yul\":7105:7110   */\n      dup2\n        /* \"#utility.yul\":7079:7111   */\n      tag_109\n      jump\t// in\n    tag_194:\n        /* \"#utility.yul\":6976:7117   */\n      swap3\n      swap2\n      pop\n      pop\n      jump\t// out\n        /* \"#utility.yul\":7123:7266   */\n    tag_111:\n        /* \"#utility.yul\":7180:7185   */\n      0x00\n        /* \"#utility.yul\":7211:7217   */\n      dup2\n        /* \"#utility.yul\":7205:7218   */\n      mload\n        /* \"#utility.yul\":7196:7218   */\n      swap1\n      pop\n        /* \"#utility.yul\":7227:7260   */\n      tag_196\n        /* \"#utility.yul\":7254:7259   */\n      dup2\n        /* \"#utility.yul\":7227:7260   */\n      tag_95\n      jump\t// in\n    tag_196:\n        /* \"#utility.yul\":7123:7266   */\n      swap3\n      swap2\n      pop\n      pop\n      jump\t// out\n        /* \"#utility.yul\":7272:8243   */\n    tag_82:\n        /* \"#utility.yul\":7375:7381   */\n      0x00\n        /* \"#utility.yul\":7383:7389   */\n      dup1\n        /* \"#utility.yul\":7391:7397   */\n      0x00\n        /* \"#utility.yul\":7399:7405   */\n      dup1\n        /* \"#utility.yul\":7407:7413   */\n      0x00\n        /* \"#utility.yul\":7456:7459   */\n      0xa0\n        /* \"#utility.yul\":7444:7453   */\n      dup7\n        /* \"#utility.yul\":7435:7442   */\n      dup9\n        /* \"#utility.yul\":7431:7454   */\n      sub\n        /* \"#utility.yul\":7427:7460   */\n      slt\n        /* \"#utility.yul\":7424:7544   */\n      iszero\n      tag_198\n      jumpi\n        /* \"#utility.yul\":7463:7542   */\n      tag_199\n      tag_88\n      jump\t// in\n    tag_199:\n        /* \"#utility.yul\":7424:7544   */\n    tag_198:\n        /* \"#utility.yul\":7583:7584   */\n      0x00\n        /* \"#utility.yul\":7608:7671   */\n      tag_200\n        /* \"#utility.yul\":7663:7670   */\n      dup9\n        /* \"#utility.yul\":7654:7660   */\n      dup3\n        /* \"#utility.yul\":7643:7652   */\n      dup10\n        /* \"#utility.yul\":7639:7661   */\n      add\n        /* \"#utility.yul\":7608:7671   */\n      tag_107\n      jump\t// in\n    tag_200:\n        /* \"#utility.yul\":7598:7671   */\n      swap6\n      pop\n        /* \"#utility.yul\":7554:7681   */\n      pop\n        /* \"#utility.yul\":7720:7722   */\n      0x20\n        /* \"#utility.yul\":7746:7809   */\n      tag_201\n        /* \"#utility.yul\":7801:7808   */\n      dup9\n        /* \"#utility.yul\":7792:7798   */\n      dup3\n        /* \"#utility.yul\":7781:7790   */\n      dup10\n        /* \"#utility.yul\":7777:7799   */\n      add\n        /* \"#utility.yul\":7746:7809   */\n      tag_110\n      jump\t// in\n    tag_201:\n        /* \"#utility.yul\":7736:7809   */\n      swap5\n      pop\n        /* \"#utility.yul\":7691:7819   */\n      pop\n        /* \"#utility.yul\":7858:7860   */\n      0x40\n        /* \"#utility.yul\":7884:7948   */\n      tag_202\n        /* \"#utility.yul\":7940:7947   */\n      dup9\n        /* \"#utility.yul\":7931:7937   */\n      dup3\n        /* \"#utility.yul\":7920:7929   */\n      dup10\n        /* \"#utility.yul\":7916:7938   */\n      add\n        /* \"#utility.yul\":7884:7948   */\n      tag_111\n      jump\t// in\n    tag_202:\n        /* \"#utility.yul\":7874:7948   */\n      swap4\n      pop\n        /* \"#utility.yul\":7829:7958   */\n      pop\n        /* \"#utility.yul\":7997:7999   */\n      0x60\n        /* \"#utility.yul\":8023:8087   */\n      tag_203\n        /* \"#utility.yul\":8079:8086   */\n      dup9\n        /* \"#utility.yul\":8070:8076   */\n      dup3\n        /* \"#utility.yul\":8059:8068   */\n      dup10\n        /* \"#utility.yul\":8055:8077   */\n      add\n        /* \"#utility.yul\":8023:8087   */\n      tag_111\n      jump\t// in\n    tag_203:\n        /* \"#utility.yul\":8013:8087   */\n      swap3\n      pop\n        /* \"#utility.yul\":7968:8097   */\n      pop\n        /* \"#utility.yul\":8136:8139   */\n      0x80\n        /* \"#utility.yul\":8163:8226   */\n      tag_204\n        /* \"#utility.yul\":8218:8225   */\n      dup9\n        /* \"#utility.yul\":8209:8215   */\n      dup3\n        /* \"#utility.yul\":8198:8207   */\n      dup10\n        /* \"#utility.yul\":8194:8216   */\n      add\n        /* \"#utility.yul\":8163:8226   */\n      tag_107\n      jump\t// in\n    tag_204:\n        /* \"#utility.yul\":8153:8226   */\n      swap2\n      pop\n        /* \"#utility.yul\":8107:8236   */\n      pop\n        /* \"#utility.yul\":7272:8243   */\n      swap3\n      swap6\n      pop\n      swap3\n      swap6\n      swap1\n      swap4\n      pop\n      jump\t// out\n        /* \"#utility.yul\":8249:8805   */\n    tag_84:\n        /* \"#utility.yul\":8288:8295   */\n      0x00\n        /* \"#utility.yul\":8311:8330   */\n      tag_206\n        /* \"#utility.yul\":8328:8329   */\n      dup3\n        /* \"#utility.yul\":8311:8330   */\n      tag_108\n      jump\t// in\n    tag_206:\n        /* \"#utility.yul\":8306:8330   */\n      swap2\n      pop\n        /* \"#utility.yul\":8344:8363   */\n      tag_207\n        /* \"#utility.yul\":8361:8362   */\n      dup4\n        /* \"#utility.yul\":8344:8363   */\n      tag_108\n      jump\t// in\n    tag_207:\n        /* \"#utility.yul\":8339:8363   */\n      swap3\n      pop\n        /* \"#utility.yul\":8398:8399   */\n      dup3\n        /* \"#utility.yul\":8395:8396   */\n      dup3\n        /* \"#utility.yul\":8391:8400   */\n      mul\n        /* \"#utility.yul\":8420:8449   */\n      tag_208\n        /* \"#utility.yul\":8437:8448   */\n      dup2\n        /* \"#utility.yul\":8420:8449   */\n      tag_108\n      jump\t// in\n    tag_208:\n        /* \"#utility.yul\":8409:8449   */\n      swap2\n      pop\n        /* \"#utility.yul\":8507:8573   */\n      0x8000000000000000000000000000000000000000000000000000000000000000\n        /* \"#utility.yul\":8504:8505   */\n      dup5\n        /* \"#utility.yul\":8501:8574   */\n      eq\n        /* \"#utility.yul\":8497:8498   */\n      0x00\n        /* \"#utility.yul\":8494:8495   */\n      dup5\n        /* \"#utility.yul\":8490:8499   */\n      slt\n        /* \"#utility.yul\":8486:8575   */\n      and\n        /* \"#utility.yul\":8483:8598   */\n      iszero\n      tag_209\n      jumpi\n        /* \"#utility.yul\":8578:8596   */\n      tag_210\n      tag_100\n      jump\t// in\n    tag_210:\n        /* \"#utility.yul\":8483:8598   */\n    tag_209:\n        /* \"#utility.yul\":8748:8749   */\n      dup3\n        /* \"#utility.yul\":8739:8746   */\n      dup3\n        /* \"#utility.yul\":8734:8750   */\n      sdiv\n        /* \"#utility.yul\":8731:8732   */\n      dup5\n        /* \"#utility.yul\":8728:8751   */\n      eq\n        /* \"#utility.yul\":8708:8709   */\n      dup4\n        /* \"#utility.yul\":8701:8710   */\n      iszero\n        /* \"#utility.yul\":8681:8765   */\n      or\n        /* \"#utility.yul\":8658:8798   */\n      tag_211\n      jumpi\n        /* \"#utility.yul\":8778:8796   */\n      tag_212\n      tag_100\n      jump\t// in\n    tag_212:\n        /* \"#utility.yul\":8658:8798   */\n    tag_211:\n        /* \"#utility.yul\":8296:8805   */\n      pop\n        /* \"#utility.yul\":8249:8805   */\n      swap3\n      swap2\n      pop\n      pop\n      jump\t// out\n\n    auxdata: 0xa2646970667358221220d965384c60ac611b7be3bdef2d418d79d39a68e1e5ec716747511c430d2a740a64736f6c63430008120033\n}\n",
				"bytecode": {
					"linkReferences": {},
					"object": "60a060405234801561001057600080fd5b503373ffffffffffffffffffffffffffffffffffffffff1660808173ffffffffffffffffffffffffffffffffffffffff1681525050608051610aee61006760003960008181610273015261046e0152610aee6000f3fe6080604052600436106100595760003560e01c80633ccfd60b146100725780636b69a59214610089578063b60d4288146100b4578063d1fa2baa146100be578063dba6335f146100fb578063dc0d3dff1461012657610068565b3661006857610066610163565b005b610070610163565b005b34801561007e57600080fd5b50610087610271565b005b34801561009557600080fd5b5061009e610448565b6040516100ab91906105cb565b60405180910390f35b6100bc610163565b005b3480156100ca57600080fd5b506100e560048036038101906100e09190610649565b610454565b6040516100f291906105cb565b60405180910390f35b34801561010757600080fd5b5061011061046c565b60405161011d9190610685565b60405180910390f35b34801561013257600080fd5b5061014d600480360381019061014891906106cc565b610490565b60405161015a9190610685565b60405180910390f35b674563918244f40000610175346104cf565b10156101b6576040517f08c379a00000000000000000000000000000000000000000000000000000000081526004016101ad90610756565b60405180910390fd5b6000339080600181540180825580915050600190039060005260206000200160009091909190916101000a81548173ffffffffffffffffffffffffffffffffffffffff021916908373ffffffffffffffffffffffffffffffffffffffff16021790555034600160003373ffffffffffffffffffffffffffffffffffffffff1673ffffffffffffffffffffffffffffffffffffffff168152602001908152602001600020600082825461026891906107a5565b92505081905550565b7f000000000000000000000000000000000000000000000000000000000000000073ffffffffffffffffffffffffffffffffffffffff163373ffffffffffffffffffffffffffffffffffffffff16146102f6576040517f30cd747100000000000000000000000000000000000000000000000000000000815260040160405180910390fd5b60005b6000805490508110156103a157600080828154811061031b5761031a6107d9565b5b9060005260206000200160009054906101000a900473ffffffffffffffffffffffffffffffffffffffff1690506000600160008373ffffffffffffffffffffffffffffffffffffffff1673ffffffffffffffffffffffffffffffffffffffff1681526020019081526020016000208190555050808061039990610808565b9150506102f9565b5060003373ffffffffffffffffffffffffffffffffffffffff16476040516103c890610881565b60006040518083038185875af1925050503d8060008114610405576040519150601f19603f3d011682016040523d82523d6000602084013e61040a565b606091505b5050905080610445576040517f3204506f00000000000000000000000000000000000000000000000000000000815260040160405180910390fd5b50565b674563918244f4000081565b60016020528060005260406000206000915090505481565b7f000000000000000000000000000000000000000000000000000000000000000081565b600081815481106104a057600080fd5b906000526020600020016000915054906101000a900473ffffffffffffffffffffffffffffffffffffffff1681565b6000806104da610509565b90506000670de0b6b3a764000084836104f39190610896565b6104fd9190610907565b90508092505050919050565b60008073694aa1769357215de4fac081bf1f309adc325306905060008173ffffffffffffffffffffffffffffffffffffffff1663feaf968c6040518163ffffffff1660e01b815260040160a060405180830381865afa158015610570573d6000803e3d6000fd5b505050506040513d601f19601f8201168201806040525081019061059491906109c5565b5050509150506402540be400816105ab9190610a40565b9250505090565b6000819050919050565b6105c5816105b2565b82525050565b60006020820190506105e060008301846105bc565b92915050565b600080fd5b600073ffffffffffffffffffffffffffffffffffffffff82169050919050565b6000610616826105eb565b9050919050565b6106268161060b565b811461063157600080fd5b50565b6000813590506106438161061d565b92915050565b60006020828403121561065f5761065e6105e6565b5b600061066d84828501610634565b91505092915050565b61067f8161060b565b82525050565b600060208201905061069a6000830184610676565b92915050565b6106a9816105b2565b81146106b457600080fd5b50565b6000813590506106c6816106a0565b92915050565b6000602082840312156106e2576106e16105e6565b5b60006106f0848285016106b7565b91505092915050565b600082825260208201905092915050565b7f6469646e27742073656e6420656e6f7567682045544800000000000000000000600082015250565b60006107406016836106f9565b915061074b8261070a565b602082019050919050565b6000602082019050818103600083015261076f81610733565b9050919050565b7f4e487b7100000000000000000000000000000000000000000000000000000000600052601160045260246000fd5b60006107b0826105b2565b91506107bb836105b2565b92508282019050808211156107d3576107d2610776565b5b92915050565b7f4e487b7100000000000000000000000000000000000000000000000000000000600052603260045260246000fd5b6000610813826105b2565b91507fffffffffffffffffffffffffffffffffffffffffffffffffffffffffffffffff820361084557610844610776565b5b600182019050919050565b600081905092915050565b50565b600061086b600083610850565b91506108768261085b565b600082019050919050565b600061088c8261085e565b9150819050919050565b60006108a1826105b2565b91506108ac836105b2565b92508282026108ba816105b2565b915082820484148315176108d1576108d0610776565b5b5092915050565b7f4e487b7100000000000000000000000000000000000000000000000000000000600052601260045260246000fd5b6000610912826105b2565b915061091d836105b2565b92508261092d5761092c6108d8565b5b828204905092915050565b600069ffffffffffffffffffff82169050919050565b61095781610938565b811461096257600080fd5b50565b6000815190506109748161094e565b92915050565b6000819050919050565b61098d8161097a565b811461099857600080fd5b50565b6000815190506109aa81610984565b92915050565b6000815190506109bf816106a0565b92915050565b600080600080600060a086880312156109e1576109e06105e6565b5b60006109ef88828901610965565b9550506020610a008882890161099b565b9450506040610a11888289016109b0565b9350506060610a22888289016109b0565b9250506080610a3388828901610965565b9150509295509295909350565b6000610a4b8261097a565b9150610a568361097a565b9250828202610a648161097a565b91507f80000000000000000000000000000000000000000000000000000000000000008414600084121615610a9c57610a9b610776565b5b8282058414831517610ab157610ab0610776565b5b509291505056fea2646970667358221220d965384c60ac611b7be3bdef2d418d79d39a68e1e5ec716747511c430d2a740a64736f6c63430008120033",
					"opcodes": "PUSH1 0xA0 PUSH1 0x40 MSTORE CALLVALUE DUP1 ISZERO PUSH2 0x10 JUMPI PUSH1 0x0 DUP1 REVERT JUMPDEST POP CALLER PUSH20 0xFFFFFFFFFFFFFFFFFFFFFFFFFFFFFFFFFFFFFFFF AND PUSH1 0x80 DUP2 PUSH20 0xFFFFFFFFFFFFFFFFFFFFFFFFFFFFFFFFFFFFFFFF AND DUP2 MSTORE POP POP PUSH1 0x80 MLOAD PUSH2 0xAEE PUSH2 0x67 PUSH1 0x0 CODECOPY PUSH1 0x0 DUP2 DUP2 PUSH2 0x273 ADD MSTORE PUSH2 0x46E ADD MSTORE PUSH2 0xAEE PUSH1 0x0 RETURN INVALID PUSH1 0x80 PUSH1 0x40 MSTORE PUSH1 0x4 CALLDATASIZE LT PUSH2 0x59 JUMPI PUSH1 0x0 CALLDATALOAD PUSH1 0xE0 SHR DUP1 PUSH4 0x3CCFD60B EQ PUSH2 0x72 JUMPI DUP1 PUSH4 0x6B69A592 EQ PUSH2 0x89 JUMPI DUP1 PUSH4 0xB60D4288 EQ PUSH2 0xB4 JUMPI DUP1 PUSH4 0xD1FA2BAA EQ PUSH2 0xBE JUMPI DUP1 PUSH4 0xDBA6335F EQ PUSH2 0xFB JUMPI DUP1 PUSH4 0xDC0D3DFF EQ PUSH2 0x126 JUMPI PUSH2 0x68 JUMP JUMPDEST CALLDATASIZE PUSH2 0x68 JUMPI PUSH2 0x66 PUSH2 0x163 JUMP JUMPDEST STOP JUMPDEST PUSH2 0x70 PUSH2 0x163 JUMP JUMPDEST STOP JUMPDEST CALLVALUE DUP1 ISZERO PUSH2 0x7E JUMPI PUSH1 0x0 DUP1 REVERT JUMPDEST POP PUSH2 0x87 PUSH2 0x271 JUMP JUMPDEST STOP JUMPDEST CALLVALUE DUP1 ISZERO PUSH2 0x95 JUMPI PUSH1 0x0 DUP1 REVERT JUMPDEST POP PUSH2 0x9E PUSH2 0x448 JUMP JUMPDEST PUSH1 0x40 MLOAD PUSH2 0xAB SWAP2 SWAP1 PUSH2 0x5CB JUMP JUMPDEST PUSH1 0x40 MLOAD DUP1 SWAP2 SUB SWAP1 RETURN JUMPDEST PUSH2 0xBC PUSH2 0x163 JUMP JUMPDEST STOP JUMPDEST CALLVALUE DUP1 ISZERO PUSH2 0xCA JUMPI PUSH1 0x0 DUP1 REVERT JUMPDEST POP PUSH2 0xE5 PUSH1 0x4 DUP1 CALLDATASIZE SUB DUP2 ADD SWAP1 PUSH2 0xE0 SWAP2 SWAP1 PUSH2 0x649 JUMP JUMPDEST PUSH2 0x454 JUMP JUMPDEST PUSH1 0x40 MLOAD PUSH2 0xF2 SWAP2 SWAP1 PUSH2 0x5CB JUMP JUMPDEST PUSH1 0x40 MLOAD DUP1 SWAP2 SUB SWAP1 RETURN JUMPDEST CALLVALUE DUP1 ISZERO PUSH2 0x107 JUMPI PUSH1 0x0 DUP1 REVERT JUMPDEST POP PUSH2 0x110 PUSH2 0x46C JUMP JUMPDEST PUSH1 0x40 MLOAD PUSH2 0x11D SWAP2 SWAP1 PUSH2 0x685 JUMP JUMPDEST PUSH1 0x40 MLOAD DUP1 SWAP2 SUB SWAP1 RETURN JUMPDEST CALLVALUE DUP1 ISZERO PUSH2 0x132 JUMPI PUSH1 0x0 DUP1 REVERT JUMPDEST POP PUSH2 0x14D PUSH1 0x4 DUP1 CALLDATASIZE SUB DUP2 ADD SWAP1 PUSH2 0x148 SWAP2 SWAP1 PUSH2 0x6CC JUMP JUMPDEST PUSH2 0x490 JUMP JUMPDEST PUSH1 0x40 MLOAD PUSH2 0x15A SWAP2 SWAP1 PUSH2 0x685 JUMP JUMPDEST PUSH1 0x40 MLOAD DUP1 SWAP2 SUB SWAP1 RETURN JUMPDEST PUSH8 0x4563918244F40000 PUSH2 0x175 CALLVALUE PUSH2 0x4CF JUMP JUMPDEST LT ISZERO PUSH2 0x1B6 JUMPI PUSH1 0x40 MLOAD PUSH32 0x8C379A000000000000000000000000000000000000000000000000000000000 DUP2 MSTORE PUSH1 0x4 ADD PUSH2 0x1AD SWAP1 PUSH2 0x756 JUMP JUMPDEST PUSH1 0x40 MLOAD DUP1 SWAP2 SUB SWAP1 REVERT JUMPDEST PUSH1 0x0 CALLER SWAP1 DUP1 PUSH1 0x1 DUP2 SLOAD ADD DUP1 DUP3 SSTORE DUP1 SWAP2 POP POP PUSH1 0x1 SWAP1 SUB SWAP1 PUSH1 0x0 MSTORE PUSH1 0x20 PUSH1 0x0 KECCAK256 ADD PUSH1 0x0 SWAP1 SWAP2 SWAP1 SWAP2 SWAP1 SWAP2 PUSH2 0x100 EXP DUP2 SLOAD DUP2 PUSH20 0xFFFFFFFFFFFFFFFFFFFFFFFFFFFFFFFFFFFFFFFF MUL NOT AND SWAP1 DUP4 PUSH20 0xFFFFFFFFFFFFFFFFFFFFFFFFFFFFFFFFFFFFFFFF AND MUL OR SWAP1 SSTORE POP CALLVALUE PUSH1 0x1 PUSH1 0x0 CALLER PUSH20 0xFFFFFFFFFFFFFFFFFFFFFFFFFFFFFFFFFFFFFFFF AND PUSH20 0xFFFFFFFFFFFFFFFFFFFFFFFFFFFFFFFFFFFFFFFF AND DUP2 MSTORE PUSH1 0x20 ADD SWAP1 DUP2 MSTORE PUSH1 0x20 ADD PUSH1 0x0 KECCAK256 PUSH1 0x0 DUP3 DUP3 SLOAD PUSH2 0x268 SWAP2 SWAP1 PUSH2 0x7A5 JUMP JUMPDEST SWAP3 POP POP DUP2 SWAP1 SSTORE POP JUMP JUMPDEST PUSH32 0x0 PUSH20 0xFFFFFFFFFFFFFFFFFFFFFFFFFFFFFFFFFFFFFFFF AND CALLER PUSH20 0xFFFFFFFFFFFFFFFFFFFFFFFFFFFFFFFFFFFFFFFF AND EQ PUSH2 0x2F6 JUMPI PUSH1 0x40 MLOAD PUSH32 0x30CD747100000000000000000000000000000000000000000000000000000000 DUP2 MSTORE PUSH1 0x4 ADD PUSH1 0x40 MLOAD DUP1 SWAP2 SUB SWAP1 REVERT JUMPDEST PUSH1 0x0 JUMPDEST PUSH1 0x0 DUP1 SLOAD SWAP1 POP DUP2 LT ISZERO PUSH2 0x3A1 JUMPI PUSH1 0x0 DUP1 DUP3 DUP2 SLOAD DUP2 LT PUSH2 0x31B JUMPI PUSH2 0x31A PUSH2 0x7D9 JUMP JUMPDEST JUMPDEST SWAP1 PUSH1 0x0 MSTORE PUSH1 0x20 PUSH1 0x0 KECCAK256 ADD PUSH1 0x0 SWAP1 SLOAD SWAP1 PUSH2 0x100 EXP SWAP1 DIV PUSH20 0xFFFFFFFFFFFFFFFFFFFFFFFFFFFFFFFFFFFFFFFF AND SWAP1 POP PUSH1 0x0 PUSH1 0x1 PUSH1 0x0 DUP4 PUSH20 0xFFFFFFFFFFFFFFFFFFFFFFFFFFFFFFFFFFFFFFFF AND PUSH20 0xFFFFFFFFFFFFFFFFFFFFFFFFFFFFFFFFFFFFFFFF AND DUP2 MSTORE PUSH1 0x20 ADD SWAP1 DUP2 MSTORE PUSH1 0x20 ADD PUSH1 0x0 KECCAK256 DUP2 SWAP1 SSTORE POP POP DUP1 DUP1 PUSH2 0x399 SWAP1 PUSH2 0x808 JUMP JUMPDEST SWAP2 POP POP PUSH2 0x2F9 JUMP JUMPDEST POP PUSH1 0x0 CALLER PUSH20 0xFFFFFFFFFFFFFFFFFFFFFFFFFFFFFFFFFFFFFFFF AND SELFBALANCE PUSH1 0x40 MLOAD PUSH2 0x3C8 SWAP1 PUSH2 0x881 JUMP JUMPDEST PUSH1 0x0 PUSH1 0x40 MLOAD DUP1 DUP4 SUB DUP2 DUP6 DUP8 GAS CALL SWAP3 POP POP POP RETURNDATASIZE DUP1 PUSH1 0x0 DUP2 EQ PUSH2 0x405 JUMPI PUSH1 0x40 MLOAD SWAP2 POP PUSH1 0x1F NOT PUSH1 0x3F RETURNDATASIZE ADD AND DUP3 ADD PUSH1 0x40 MSTORE RETURNDATASIZE DUP3 MSTORE RETURNDATASIZE PUSH1 0x0 PUSH1 0x20 DUP5 ADD RETURNDATACOPY PUSH2 0x40A JUMP JUMPDEST PUSH1 0x60 SWAP2 POP JUMPDEST POP POP SWAP1 POP DUP1 PUSH2 0x445 JUMPI PUSH1 0x40 MLOAD PUSH32 0x3204506F00000000000000000000000000000000000000000000000000000000 DUP2 MSTORE PUSH1 0x4 ADD PUSH1 0x40 MLOAD DUP1 SWAP2 SUB SWAP1 REVERT JUMPDEST POP JUMP JUMPDEST PUSH8 0x4563918244F40000 DUP2 JUMP JUMPDEST PUSH1 0x1 PUSH1 0x20 MSTORE DUP1 PUSH1 0x0 MSTORE PUSH1 0x40 PUSH1 0x0 KECCAK256 PUSH1 0x0 SWAP2 POP SWAP1 POP SLOAD DUP2 JUMP JUMPDEST PUSH32 0x0 DUP2 JUMP JUMPDEST PUSH1 0x0 DUP2 DUP2 SLOAD DUP2 LT PUSH2 0x4A0 JUMPI PUSH1 0x0 DUP1 REVERT JUMPDEST SWAP1 PUSH1 0x0 MSTORE PUSH1 0x20 PUSH1 0x0 KECCAK256 ADD PUSH1 0x0 SWAP2 POP SLOAD SWAP1 PUSH2 0x100 EXP SWAP1 DIV PUSH20 0xFFFFFFFFFFFFFFFFFFFFFFFFFFFFFFFFFFFFFFFF AND DUP2 JUMP JUMPDEST PUSH1 0x0 DUP1 PUSH2 0x4DA PUSH2 0x509 JUMP JUMPDEST SWAP1 POP PUSH1 0x0 PUSH8 0xDE0B6B3A7640000 DUP5 DUP4 PUSH2 0x4F3 SWAP2 SWAP1 PUSH2 0x896 JUMP JUMPDEST PUSH2 0x4FD SWAP2 SWAP1 PUSH2 0x907 JUMP JUMPDEST SWAP1 POP DUP1 SWAP3 POP POP POP SWAP2 SWAP1 POP JUMP JUMPDEST PUSH1 0x0 DUP1 PUSH20 0x694AA1769357215DE4FAC081BF1F309ADC325306 SWAP1 POP PUSH1 0x0 DUP2 PUSH20 0xFFFFFFFFFFFFFFFFFFFFFFFFFFFFFFFFFFFFFFFF AND PUSH4 0xFEAF968C PUSH1 0x40 MLOAD DUP2 PUSH4 0xFFFFFFFF AND PUSH1 0xE0 SHL DUP2 MSTORE PUSH1 0x4 ADD PUSH1 0xA0 PUSH1 0x40 MLOAD DUP1 DUP4 SUB DUP2 DUP7 GAS STATICCALL ISZERO DUP1 ISZERO PUSH2 0x570 JUMPI RETURNDATASIZE PUSH1 0x0 DUP1 RETURNDATACOPY RETURNDATASIZE PUSH1 0x0 REVERT JUMPDEST POP POP POP POP PUSH1 0x40 MLOAD RETURNDATASIZE PUSH1 0x1F NOT PUSH1 0x1F DUP3 ADD AND DUP3 ADD DUP1 PUSH1 0x40 MSTORE POP DUP2 ADD SWAP1 PUSH2 0x594 SWAP2 SWAP1 PUSH2 0x9C5 JUMP JUMPDEST POP POP POP SWAP2 POP POP PUSH5 0x2540BE400 DUP2 PUSH2 0x5AB SWAP2 SWAP1 PUSH2 0xA40 JUMP JUMPDEST SWAP3 POP POP POP SWAP1 JUMP JUMPDEST PUSH1 0x0 DUP2 SWAP1 POP SWAP2 SWAP1 POP JUMP JUMPDEST PUSH2 0x5C5 DUP2 PUSH2 0x5B2 JUMP JUMPDEST DUP3 MSTORE POP POP JUMP JUMPDEST PUSH1 0x0 PUSH1 0x20 DUP3 ADD SWAP1 POP PUSH2 0x5E0 PUSH1 0x0 DUP4 ADD DUP5 PUSH2 0x5BC JUMP JUMPDEST SWAP3 SWAP2 POP POP JUMP JUMPDEST PUSH1 0x0 DUP1 REVERT JUMPDEST PUSH1 0x0 PUSH20 0xFFFFFFFFFFFFFFFFFFFFFFFFFFFFFFFFFFFFFFFF DUP3 AND SWAP1 POP SWAP2 SWAP1 POP JUMP JUMPDEST PUSH1 0x0 PUSH2 0x616 DUP3 PUSH2 0x5EB JUMP JUMPDEST SWAP1 POP SWAP2 SWAP1 POP JUMP JUMPDEST PUSH2 0x626 DUP2 PUSH2 0x60B JUMP JUMPDEST DUP2 EQ PUSH2 0x631 JUMPI PUSH1 0x0 DUP1 REVERT JUMPDEST POP JUMP JUMPDEST PUSH1 0x0 DUP2 CALLDATALOAD SWAP1 POP PUSH2 0x643 DUP2 PUSH2 0x61D JUMP JUMPDEST SWAP3 SWAP2 POP POP JUMP JUMPDEST PUSH1 0x0 PUSH1 0x20 DUP3 DUP5 SUB SLT ISZERO PUSH2 0x65F JUMPI PUSH2 0x65E PUSH2 0x5E6 JUMP JUMPDEST JUMPDEST PUSH1 0x0 PUSH2 0x66D DUP5 DUP3 DUP6 ADD PUSH2 0x634 JUMP JUMPDEST SWAP2 POP POP SWAP3 SWAP2 POP POP JUMP JUMPDEST PUSH2 0x67F DUP2 PUSH2 0x60B JUMP JUMPDEST DUP3 MSTORE POP POP JUMP JUMPDEST PUSH1 0x0 PUSH1 0x20 DUP3 ADD SWAP1 POP PUSH2 0x69A PUSH1 0x0 DUP4 ADD DUP5 PUSH2 0x676 JUMP JUMPDEST SWAP3 SWAP2 POP POP JUMP JUMPDEST PUSH2 0x6A9 DUP2 PUSH2 0x5B2 JUMP JUMPDEST DUP2 EQ PUSH2 0x6B4 JUMPI PUSH1 0x0 DUP1 REVERT JUMPDEST POP JUMP JUMPDEST PUSH1 0x0 DUP2 CALLDATALOAD SWAP1 POP PUSH2 0x6C6 DUP2 PUSH2 0x6A0 JUMP JUMPDEST SWAP3 SWAP2 POP POP JUMP JUMPDEST PUSH1 0x0 PUSH1 0x20 DUP3 DUP5 SUB SLT ISZERO PUSH2 0x6E2 JUMPI PUSH2 0x6E1 PUSH2 0x5E6 JUMP JUMPDEST JUMPDEST PUSH1 0x0 PUSH2 0x6F0 DUP5 DUP3 DUP6 ADD PUSH2 0x6B7 JUMP JUMPDEST SWAP2 POP POP SWAP3 SWAP2 POP POP JUMP JUMPDEST PUSH1 0x0 DUP3 DUP3 MSTORE PUSH1 0x20 DUP3 ADD SWAP1 POP SWAP3 SWAP2 POP POP JUMP JUMPDEST PUSH32 0x6469646E27742073656E6420656E6F7567682045544800000000000000000000 PUSH1 0x0 DUP3 ADD MSTORE POP JUMP JUMPDEST PUSH1 0x0 PUSH2 0x740 PUSH1 0x16 DUP4 PUSH2 0x6F9 JUMP JUMPDEST SWAP2 POP PUSH2 0x74B DUP3 PUSH2 0x70A JUMP JUMPDEST PUSH1 0x20 DUP3 ADD SWAP1 POP SWAP2 SWAP1 POP JUMP JUMPDEST PUSH1 0x0 PUSH1 0x20 DUP3 ADD SWAP1 POP DUP2 DUP2 SUB PUSH1 0x0 DUP4 ADD MSTORE PUSH2 0x76F DUP2 PUSH2 0x733 JUMP JUMPDEST SWAP1 POP SWAP2 SWAP1 POP JUMP JUMPDEST PUSH32 0x4E487B7100000000000000000000000000000000000000000000000000000000 PUSH1 0x0 MSTORE PUSH1 0x11 PUSH1 0x4 MSTORE PUSH1 0x24 PUSH1 0x0 REVERT JUMPDEST PUSH1 0x0 PUSH2 0x7B0 DUP3 PUSH2 0x5B2 JUMP JUMPDEST SWAP2 POP PUSH2 0x7BB DUP4 PUSH2 0x5B2 JUMP JUMPDEST SWAP3 POP DUP3 DUP3 ADD SWAP1 POP DUP1 DUP3 GT ISZERO PUSH2 0x7D3 JUMPI PUSH2 0x7D2 PUSH2 0x776 JUMP JUMPDEST JUMPDEST SWAP3 SWAP2 POP POP JUMP JUMPDEST PUSH32 0x4E487B7100000000000000000000000000000000000000000000000000000000 PUSH1 0x0 MSTORE PUSH1 0x32 PUSH1 0x4 MSTORE PUSH1 0x24 PUSH1 0x0 REVERT JUMPDEST PUSH1 0x0 PUSH2 0x813 DUP3 PUSH2 0x5B2 JUMP JUMPDEST SWAP2 POP PUSH32 0xFFFFFFFFFFFFFFFFFFFFFFFFFFFFFFFFFFFFFFFFFFFFFFFFFFFFFFFFFFFFFFFF DUP3 SUB PUSH2 0x845 JUMPI PUSH2 0x844 PUSH2 0x776 JUMP JUMPDEST JUMPDEST PUSH1 0x1 DUP3 ADD SWAP1 POP SWAP2 SWAP1 POP JUMP JUMPDEST PUSH1 0x0 DUP2 SWAP1 POP SWAP3 SWAP2 POP POP JUMP JUMPDEST POP JUMP JUMPDEST PUSH1 0x0 PUSH2 0x86B PUSH1 0x0 DUP4 PUSH2 0x850 JUMP JUMPDEST SWAP2 POP PUSH2 0x876 DUP3 PUSH2 0x85B JUMP JUMPDEST PUSH1 0x0 DUP3 ADD SWAP1 POP SWAP2 SWAP1 POP JUMP JUMPDEST PUSH1 0x0 PUSH2 0x88C DUP3 PUSH2 0x85E JUMP JUMPDEST SWAP2 POP DUP2 SWAP1 POP SWAP2 SWAP1 POP JUMP JUMPDEST PUSH1 0x0 PUSH2 0x8A1 DUP3 PUSH2 0x5B2 JUMP JUMPDEST SWAP2 POP PUSH2 0x8AC DUP4 PUSH2 0x5B2 JUMP JUMPDEST SWAP3 POP DUP3 DUP3 MUL PUSH2 0x8BA DUP2 PUSH2 0x5B2 JUMP JUMPDEST SWAP2 POP DUP3 DUP3 DIV DUP5 EQ DUP4 ISZERO OR PUSH2 0x8D1 JUMPI PUSH2 0x8D0 PUSH2 0x776 JUMP JUMPDEST JUMPDEST POP SWAP3 SWAP2 POP POP JUMP JUMPDEST PUSH32 0x4E487B7100000000000000000000000000000000000000000000000000000000 PUSH1 0x0 MSTORE PUSH1 0x12 PUSH1 0x4 MSTORE PUSH1 0x24 PUSH1 0x0 REVERT JUMPDEST PUSH1 0x0 PUSH2 0x912 DUP3 PUSH2 0x5B2 JUMP JUMPDEST SWAP2 POP PUSH2 0x91D DUP4 PUSH2 0x5B2 JUMP JUMPDEST SWAP3 POP DUP3 PUSH2 0x92D JUMPI PUSH2 0x92C PUSH2 0x8D8 JUMP JUMPDEST JUMPDEST DUP3 DUP3 DIV SWAP1 POP SWAP3 SWAP2 POP POP JUMP JUMPDEST PUSH1 0x0 PUSH10 0xFFFFFFFFFFFFFFFFFFFF DUP3 AND SWAP1 POP SWAP2 SWAP1 POP JUMP JUMPDEST PUSH2 0x957 DUP2 PUSH2 0x938 JUMP JUMPDEST DUP2 EQ PUSH2 0x962 JUMPI PUSH1 0x0 DUP1 REVERT JUMPDEST POP JUMP JUMPDEST PUSH1 0x0 DUP2 MLOAD SWAP1 POP PUSH2 0x974 DUP2 PUSH2 0x94E JUMP JUMPDEST SWAP3 SWAP2 POP POP JUMP JUMPDEST PUSH1 0x0 DUP2 SWAP1 POP SWAP2 SWAP1 POP JUMP JUMPDEST PUSH2 0x98D DUP2 PUSH2 0x97A JUMP JUMPDEST DUP2 EQ PUSH2 0x998 JUMPI PUSH1 0x0 DUP1 REVERT JUMPDEST POP JUMP JUMPDEST PUSH1 0x0 DUP2 MLOAD SWAP1 POP PUSH2 0x9AA DUP2 PUSH2 0x984 JUMP JUMPDEST SWAP3 SWAP2 POP POP JUMP JUMPDEST PUSH1 0x0 DUP2 MLOAD SWAP1 POP PUSH2 0x9BF DUP2 PUSH2 0x6A0 JUMP JUMPDEST SWAP3 SWAP2 POP POP JUMP JUMPDEST PUSH1 0x0 DUP1 PUSH1 0x0 DUP1 PUSH1 0x0 PUSH1 0xA0 DUP7 DUP9 SUB SLT ISZERO PUSH2 0x9E1 JUMPI PUSH2 0x9E0 PUSH2 0x5E6 JUMP JUMPDEST JUMPDEST PUSH1 0x0 PUSH2 0x9EF DUP9 DUP3 DUP10 ADD PUSH2 0x965 JUMP JUMPDEST SWAP6 POP POP PUSH1 0x20 PUSH2 0xA00 DUP9 DUP3 DUP10 ADD PUSH2 0x99B JUMP JUMPDEST SWAP5 POP POP PUSH1 0x40 PUSH2 0xA11 DUP9 DUP3 DUP10 ADD PUSH2 0x9B0 JUMP JUMPDEST SWAP4 POP POP PUSH1 0x60 PUSH2 0xA22 DUP9 DUP3 DUP10 ADD PUSH2 0x9B0 JUMP JUMPDEST SWAP3 POP POP PUSH1 0x80 PUSH2 0xA33 DUP9 DUP3 DUP10 ADD PUSH2 0x965 JUMP JUMPDEST SWAP2 POP POP SWAP3 SWAP6 POP SWAP3 SWAP6 SWAP1 SWAP4 POP JUMP JUMPDEST PUSH1 0x0 PUSH2 0xA4B DUP3 PUSH2 0x97A JUMP JUMPDEST SWAP2 POP PUSH2 0xA56 DUP4 PUSH2 0x97A JUMP JUMPDEST SWAP3 POP DUP3 DUP3 MUL PUSH2 0xA64 DUP2 PUSH2 0x97A JUMP JUMPDEST SWAP2 POP PUSH32 0x8000000000000000000000000000000000000000000000000000000000000000 DUP5 EQ PUSH1 0x0 DUP5 SLT AND ISZERO PUSH2 0xA9C JUMPI PUSH2 0xA9B PUSH2 0x776 JUMP JUMPDEST JUMPDEST DUP3 DUP3 SDIV DUP5 EQ DUP4 ISZERO OR PUSH2 0xAB1 JUMPI PUSH2 0xAB0 PUSH2 0x776 JUMP JUMPDEST JUMPDEST POP SWAP3 SWAP2 POP POP JUMP INVALID LOG2 PUSH5 0x6970667358 0x22 SLT KECCAK256 0xD9 PUSH6 0x384C60AC611B PUSH28 0xE3BDEF2D418D79D39A68E1E5EC716747511C430D2A740A64736F6C63 NUMBER STOP ADDMOD SLT STOP CALLER "
				},
				"gasEstimates": {
					"creation": {
						"codeDepositCost": "559600",
						"executionCost": "infinite",
						"totalCost": "infinite"
					},
					"external": {
						"": "infinite",
						"MINIMUM_USD()": "329",
						"addressToFundedAmount(address)": "2858",
						"fund()": "infinite",
						"funders(uint256)": "5044",
						"i_owner()": "infinite",
						"withdraw()": "infinite"
					}
				},
				"methodIdentifiers": {
					"MINIMUM_USD()": "6b69a592",
					"addressToFundedAmount(address)": "d1fa2baa",
					"fund()": "b60d4288",
					"funders(uint256)": "dc0d3dff",
					"i_owner()": "dba6335f",
					"withdraw()": "3ccfd60b"
				}
			},
			"storageLayout": {
				"storage": [
					{
						"astId": 64,
						"contract": "Fundme.sol:FundMe",
						"label": "funders",
						"offset": 0,
						"slot": "0",
						"type": "t_array(t_address)dyn_storage"
					},
					{
						"astId": 68,
						"contract": "Fundme.sol:FundMe",
						"label": "addressToFundedAmount",
						"offset": 0,
						"slot": "1",
						"type": "t_mapping(t_address,t_uint256)"
					}
				],
				"types": {
					"t_address": {
						"encoding": "inplace",
						"label": "address",
						"numberOfBytes": "20"
					},
					"t_array(t_address)dyn_storage": {
						"base": "t_address",
						"encoding": "dynamic_array",
						"label": "address[]",
						"numberOfBytes": "32"
					},
					"t_mapping(t_address,t_uint256)": {
						"encoding": "mapping",
						"key": "t_address",
						"label": "mapping(address => uint256)",
						"numberOfBytes": "32",
						"value": "t_uint256"
					},
					"t_uint256": {
						"encoding": "inplace",
						"label": "uint256",
						"numberOfBytes": "32"
					}
				}
			},
			"userdoc": {
				"kind": "user",
				"methods": {},
				"version": 1
			}
		}
	}
}